:020000040000FA
:0600000046EF03F01200C0
:020006000000F8
:08000800D9CFE6FFE1CFD9FFDB
:100010000B0EE126946A956A9280FCD9CA6A0C0E8E
:10002000BD6ECC6AC70ECB6E010EBE6E030EC26EE5
:100030000D0EC16E880EC06ECA84C282C2B2FED7D7
:10004000C450DE6EDD6ADECF00F0DDCF01F000C00F
:1000500001F0006A00C0DEFF01C0DDFFC350E76EA3
:10006000000EDFCF00F0010EDBCF01F0E7500012F1
:1000700000C0DEFF01C0DDFFC70EE66EE66AE66A7D
:10008000E66AE66AE66AE66AE66AE668030EE66E2D
:10009000E66AE66AE66AE66AE66AE66ADECF00F0E3
:1000A000DDCF01F0026A036A01AE02D00268036884
:1000B00000C0E6FF01C0E6FF02C0E6FF03C0E6FFA6
:1000C00096D8046E140EE15E0450040E2AC0DBFFC5
:1000D000050E2BC0DBFF040EDB50BE6E020EDB6A8A
:1000E000030EDB6A020EDBCF00F0030EDBCF01F064
:1000F000013404E200500308000E015441E3040EF1
:10010000DBCF02F0050EDBCF03F00A0E316E326A50
:1001100002C02CF003C02DF01BEC02F028C002F04E
:1001200029C003F0300E0226000E0322D950060F1C
:10013000006EDACF01F0020EDB500024E96E030EF0
:10014000DB500120EA6E02C0EFFF0A0E006E016A6A
:10015000040EDBCF2CF0050EDBCF2DF000C031F00C
:1001600001C032F01BEC02F0040E2CC0DBFF050EC8
:100170002DC0DBFF020EDB2A030E01E3DB2AB2D720
:10018000800EE66E29D9E552030EF36E020EF3CF10
:10019000DBFF030EDB6A020EDBCF00F0030EDBCFCA
:1001A00001F00001800E011417E1D950060F006E16
:1001B000DACF01F0020EDB500024E96E030EDB50B3
:1001C0000120EA6EEF50E66E16D9E552020EDB060C
:1001D000030E01E2DB06DFD730D70B0EE15C02E253
:1001E000E16AE552E16EE552E7CFD9FF1200D9CFBF
:1001F000E6FFE1CFD9FFEF0EDBCF20F0F00EDBCF33
:1002000021F0F10EDBCF22F0F20EDBCF23F0F30E64
:10021000DBCF1CF0F40EDBCF1DF0F50EDBCF1EF0B4
:10022000F60EDBCF1FF0D950F70FE96EFF0EDA2084
:10023000EA6EEE501C5C186EEE501D58196EEE50B2
:100240001E581A6EEE501F581B6E182A000E1922E7
:100250001A221B22EB0EDBCF14F0EC0EDBCF15F0D5
:10026000ED0EDBCF16F0EE0EDBCF17F0D950EF0F0F
:10027000E96EFF0EDA20EA6EEE50145C106EEE505E
:100280001558116EEE501658126EEE501758136E28
:10029000102A000E112212221322FB0EDBCF0CF0CB
:1002A000FC0EDBCF0DF0FD0EDBCF0EF0FE0EDBCF34
:1002B0000FF0D950F70FE96EFF0EDA20EA6EEE501C
:1002C0000C5C086EEE500D58096EEE500E580A6E1A
:1002D000EE500F580B6E08C02AF009C02BF00AC070
:1002E0002CF00BC02DF010C02FF011C030F012C058
:1002F00031F013C032F0C4EC02F026C004F027C085
:1003000005F028C006F029C007F004C02AF005C097
:100310002BF006C02CF007C02DF018C02FF019C02C
:1003200030F01AC031F01BC032F041EC02F02A501C
:1003300000012024006E2B502120016E2C50222021
:10034000026E2D502320036E00C02AF001C02BF056
:1003500002C02CF003C02DF000D0E552E7CFD9FF4A
:100360001200D9CFE6FFE1CFD9FF040EE126DE6A05
:10037000DD6ADECF00F0DDCF01F0D890015004E659
:10038000640E005C000E01581DE2020EDB6A030ED3
:10039000DB6A020EDBCF00F0030EDBCF01F0D8905A
:1003A000015004E6640E005C000E015806E2020EE5
:1003B000DB2A030E01E3DB2AECD7DF2A010E01E37F
:1003C000DB2AD7D7040EE15C02E2E16AE552E16E76
:1003D000E552E7CFD9FF1200D9CFE6FFE1CFD9FF31
:1003E000FE0EDB50836E82908282BBDF8292E552EA
:1003F000E7CFD9FF1200D9CFE6FFE1CFD9FFFE0E3C
:10040000DB50836E82808282ACDF8292E552E7CF3E
:10041000D9FF1200010EE66EDFDFE552380EE66E00
:10042000DBDFE5520E0EE66ED7DFE552800EE66E9C
:06043000D3DFE5521200CB
:0A043600246A32AE24EF02F0316CAC
:10044000321EE86A3222241E2DAE2CEF02F02C6CF4
:100450002D1EE86A2D22241E20EC03F02DBE3CEF59
:1004600002F024AE000C2C6C2D1EE86A2D22286CA4
:10047000291EE86A2922000C24BE33EF02F02588E9
:10048000FF0C246AE86A32AE4EEF02F02F6C301E89
:10049000311E321E302231223222241E2DAE59EF5F
:1004A00002F02A6C2B1E2C1E2D1E2B222C222D22FC
:1004B000241EFCEC02F02DBE70EF02F024AE000C06
:1004C0002A6C2B1E2C1E2D1EE86A2B222C222D227C
:1004D000266C271E281E291E272228222922000CCE
:0A04E00024BE60EF02F02588FF0C37
:0604EA00060EF66E000E86
:1004F000F76E000EF86E00010900F550656F0900F7
:10050000F550666F03E1656701D03DD00900F550F5
:10051000606F0900F550616F0900F550626F0900C6
:100520000900F550E96E0900F550EA6E090009006E
:100530000900F550636F0900F550646F0900090068
:10054000F6CF67F0F7CF68F0F8CF69F060C0F6FF3C
:1005500061C0F7FF62C0F8FF0001635302E164531A
:1005600007E00900F550EE6E6307F8E26407F9D77B
:1005700067C0F6FF68C0F7FF69C0F8FF00016507B4
:08058000000E665BBFD71200FC
:080588002A502F02F3CF26F0E8
:10059000F4CF27F03002F3502726000EF420286E07
:1005A0002A503102F3502826000EF420296E2A50DA
:1005B0003202F35029262B502F02F3502726F450F5
:1005C0002822000E29222B503002F3502826F45006
:1005D00029222B503102F35029262C502F02F350A0
:1005E0002826F45029222C503002F35029262D5071
:0805F0002F02F350292612002E
:0805F800296A286A276A266AB5
:10060000200EE76ED8902A362B362C362D3626361D
:100610002736283629362F50265C3050275831503F
:1006200028583250295809E32F50265E3050275A57
:100630003150285A3250295A2A2AE72EE4D712007C
:10064000296A286A100EE76ED8902C362D36283687
:1006500029363150285C3250295805E33150285E44
:0C0660003250295A2C2AE72EF0D7120045
:04066C00000EF36E1B
:1006700000EE00F0060E01D81200EA6002D0EE6A29
:0C068000FCD7F350E9601200EE6AFCD7D2
:04068C0015EE00F077
:1006900025EE00F0F86A259C75EC02F054EC03F0AE
:0806A00004EC00F0FBD712008E
:0206A80012003E
:00000001FF
